:107E000001C0E6C0112484B7882361F0982F9A70CE
:107E1000923041F081FF02C097EF94BF282E80E09E
:107E2000C2D0EEC085E08093810082E08093C000E4
:107E300088E18093C10086E08093C20082E2809353
:107E4000C4008EE0B0D0259A84E020E33CEF91E0BE
:107E5000309385002093840096BBB09BFECF1D9A83
:107E6000A8954091C00047FD02C0815089F793E07A
:107E7000E92EDD24D39425E0C22E31E1B32E87D044
:107E8000813459F484D0182F94D083E0113809F448
:107E900088E076D080E174D0F2CF823419F484E1A6
:107EA00090D0F8CF853411F485E0FACF853541F4D0
:107EB0006ED0C82F6CD0D82FCC0FDD1F7AD0EACF70
:107EC000863521F484E07DD080E0E3CF843609F06C
:107ED00034C05DD05CD0F82E5AD0A82E00E011E05E
:107EE00048018FEF881A980A52D0F80180838401E4
:107EF000F810F6CF5ED0F5E4AF1201C0FFCFFE015F
:107F0000E7BEE89507B600FCFDCFFE01A0E0B1E0BA
:107F1000CD0102962D913C910901D7BEE89511241F
:107F20003296DC01F812F4CFFE01C7BEE89507B621
:107F300000FCFDCFB7BEE895ADCF843791F427D0D4
:107F400026D0F82E24D0182F34D0153409F4FFCFC2
:107F50008E01F80185918F0113D0FA94F110F9CFB9
:107F600099CF853739F425D08EE10AD085E908D03C
:107F700086E18FCF813509F0A1CF88E014D09ECF64
:107F80009091C00095FFFCCF8093C600089580912A
:107F9000C00087FFFCCF8091C00084FD01C0A89580
:107FA0008091C6000895E0E6F0E098E19083808338
:107FB0000895EDDF803219F088E0F5DFFFCF84E12E
:107FC000DFCFCF93C82FE3DFC150E9F7CF91F1CFD7
:107FD000FC010A0167BFE895112407B600FCFDCF3C
:107FE000667029F0452B19F481E187BFE895089563
:027FFE00030876
:0400000300007E007B
:00000001FF
